{
  "_format": "hh-sol-artifact-1",
  "contractName": "WavePortal",
  "sourceName": "contracts/WavePotral.sol",
  "abi": [
    {
      "inputs": [],
      "stateMutability": "payable",
      "type": "constructor"
    },
    {
      "anonymous": false,
      "inputs": [
        {
          "indexed": true,
          "internalType": "address",
          "name": "from",
          "type": "address"
        },
        {
          "indexed": false,
          "internalType": "uint256",
          "name": "timestamp",
          "type": "uint256"
        },
        {
          "indexed": false,
          "internalType": "string",
          "name": "message",
          "type": "string"
        }
      ],
      "name": "NewWave",
      "type": "event"
    },
    {
      "inputs": [],
      "name": "getAllUsersAndWaves",
      "outputs": [
        {
          "internalType": "address[]",
          "name": "",
          "type": "address[]"
        }
      ],
      "stateMutability": "view",
      "type": "function"
    },
    {
      "inputs": [],
      "name": "getAllWaves",
      "outputs": [
        {
          "components": [
            {
              "internalType": "address",
              "name": "waver",
              "type": "address"
            },
            {
              "internalType": "string",
              "name": "message",
              "type": "string"
            },
            {
              "internalType": "uint256",
              "name": "timestamp",
              "type": "uint256"
            }
          ],
          "internalType": "struct WavePortal.Wave[]",
          "name": "",
          "type": "tuple[]"
        }
      ],
      "stateMutability": "view",
      "type": "function"
    },
    {
      "inputs": [],
      "name": "getTotalWaves",
      "outputs": [
        {
          "internalType": "uint256",
          "name": "",
          "type": "uint256"
        }
      ],
      "stateMutability": "view",
      "type": "function"
    },
    {
      "inputs": [
        {
          "internalType": "address",
          "name": "waver",
          "type": "address"
        }
      ],
      "name": "getUserWaves",
      "outputs": [
        {
          "internalType": "uint256",
          "name": "",
          "type": "uint256"
        }
      ],
      "stateMutability": "view",
      "type": "function"
    },
    {
      "inputs": [
        {
          "internalType": "address",
          "name": "",
          "type": "address"
        }
      ],
      "name": "lastWavedAt",
      "outputs": [
        {
          "internalType": "uint256",
          "name": "",
          "type": "uint256"
        }
      ],
      "stateMutability": "view",
      "type": "function"
    },
    {
      "inputs": [
        {
          "internalType": "string",
          "name": "waveMessage",
          "type": "string"
        }
      ],
      "name": "wave",
      "outputs": [],
      "stateMutability": "nonpayable",
      "type": "function"
    }
  ],
  "bytecode": "0x60806040526200004f6040518060400160405280601981526020017f57652068617665206265656e20636f6e737472756374656421000000000000008152506200005560201b620007d21760201c565b620001e9565b620000f5816040516024016200006c919062000162565b6040516020818303038152906040527f41304fac000000000000000000000000000000000000000000000000000000007bffffffffffffffffffffffffffffffffffffffffffffffffffffffff19166020820180517bffffffffffffffffffffffffffffffffffffffffffffffffffffffff8381831617835250505050620000f860201b60201c565b50565b60008151905060006a636f6e736f6c652e6c6f679050602083016000808483855afa5050505050565b60006200012e8262000186565b6200013a818562000191565b93506200014c818560208601620001a2565b6200015781620001d8565b840191505092915050565b600060208201905081810360008301526200017e818462000121565b905092915050565b600081519050919050565b600082825260208201905092915050565b60005b83811015620001c2578082015181840152602081019050620001a5565b83811115620001d2576000848401525b50505050565b6000601f19601f8301169050919050565b6116c980620001f96000396000f3fe608060405234801561001057600080fd5b50600436106100625760003560e01c8063449d46c0146100675780636cdca0ea146100835780638b0ab5a8146100b35780639a2cdc08146100d1578063a42a4663146100ef578063bd43a9081461011f575b600080fd5b610081600480360381019061007c9190610d9c565b61013d565b005b61009d60048036038101906100989190610d73565b610544565b6040516100aa91906111f4565b60405180910390f35b6100bb610590565b6040516100c8919061107b565b60405180910390f35b6100d961061e565b6040516100e691906111f4565b60405180910390f35b61010960048036038101906101049190610d73565b610669565b60405161011691906111f4565b60405180910390f35b610127610681565b604051610134919061109d565b60405180910390f35b42601e600460003373ffffffffffffffffffffffffffffffffffffffff1673ffffffffffffffffffffffffffffffffffffffff1681526020019081526020016000205461018a919061133f565b106101ca576040517f08c379a00000000000000000000000000000000000000000000000000000000081526004016101c1906111b4565b60405180910390fd5b42600460003373ffffffffffffffffffffffffffffffffffffffff1673ffffffffffffffffffffffffffffffffffffffff168152602001908152602001600020819055506001600080828254610220919061133f565b92505081905550600260405180606001604052803373ffffffffffffffffffffffffffffffffffffffff16815260200183815260200142815250908060018154018082558091505060019003906000526020600020906003020160009091909190915060008201518160000160006101000a81548173ffffffffffffffffffffffffffffffffffffffff021916908373ffffffffffffffffffffffffffffffffffffffff16021790555060208201518160010190805190602001906102e6929190610c53565b50604082015181600201555050600060646001544244610306919061133f565b610310919061133f565b61031a9190611476565b905061035b6040518060400160405280601681526020017f52616e646f6d20232067656e6572617465643a202573000000000000000000008152508261086b565b8060018190555060328110156104a7576103aa6040518060400160405280600781526020017f257320776f6e210000000000000000000000000000000000000000000000000081525033610907565b6000655af3107a40009050478111156103f8576040517f08c379a00000000000000000000000000000000000000000000000000000000081526004016103ef906111d4565b60405180910390fd5b60003373ffffffffffffffffffffffffffffffffffffffff168260405161041e90611066565b60006040518083038185875af1925050503d806000811461045b576040519150601f19603f3d011682016040523d82523d6000602084013e610460565b606091505b50509050806104a4576040517f08c379a000000000000000000000000000000000000000000000000000000000815260040161049b90611194565b60405180910390fd5b50505b3373ffffffffffffffffffffffffffffffffffffffff167f5f7e16dc676677766a70e9c5628aa6c54ddb8b6e5188e2ae1e1f17f1ffbea71642846040516104ef92919061120f565b60405180910390a261050133836109a3565b6105406040518060400160405280600d81526020017f257320686173207761766564210000000000000000000000000000000000000081525033610907565b5050565b6000600360008373ffffffffffffffffffffffffffffffffffffffff1673ffffffffffffffffffffffffffffffffffffffff168152602001908152602001600020600001549050919050565b6060600580548060200260200160405190810160405280929190818152602001828054801561061457602002820191906000526020600020905b8160009054906101000a900473ffffffffffffffffffffffffffffffffffffffff1673ffffffffffffffffffffffffffffffffffffffff16815260200190600101908083116105ca575b5050505050905090565b60006106616040518060400160405280601781526020017f5765206861766520256420746f74616c2077617665732100000000000000000081525060005461086b565b600054905090565b60046020528060005260406000206000915090505481565b60606002805480602002602001604051908101604052809291908181526020016000905b828210156107c957838290600052602060002090600302016040518060600160405290816000820160009054906101000a900473ffffffffffffffffffffffffffffffffffffffff1673ffffffffffffffffffffffffffffffffffffffff1673ffffffffffffffffffffffffffffffffffffffff16815260200160018201805461072e90611413565b80601f016020809104026020016040519081016040528092919081815260200182805461075a90611413565b80156107a75780601f1061077c576101008083540402835291602001916107a7565b820191906000526020600020905b81548152906001019060200180831161078a57829003601f168201915b50505050508152602001600282015481525050815260200190600101906106a5565b50505050905090565b610868816040516024016107e691906110bf565b6040516020818303038152906040527f41304fac000000000000000000000000000000000000000000000000000000007bffffffffffffffffffffffffffffffffffffffffffffffffffffffff19166020820180517bffffffffffffffffffffffffffffffffffffffffffffffffffffffff8381831617835250505050610b88565b50565b6109038282604051602401610881929190611164565b6040516020818303038152906040527f9710a9d0000000000000000000000000000000000000000000000000000000007bffffffffffffffffffffffffffffffffffffffffffffffffffffffff19166020820180517bffffffffffffffffffffffffffffffffffffffffffffffffffffffff8381831617835250505050610b88565b5050565b61099f828260405160240161091d9291906110e1565b6040516020818303038152906040527f319af333000000000000000000000000000000000000000000000000000000007bffffffffffffffffffffffffffffffffffffffffffffffffffffffff19166020820180517bffffffffffffffffffffffffffffffffffffffffffffffffffffffff8381831617835250505050610b88565b5050565b6001600360008473ffffffffffffffffffffffffffffffffffffffff1673ffffffffffffffffffffffffffffffffffffffff16815260200190815260200160002060000160008282546109f6919061133f565b9250508190555080600360008473ffffffffffffffffffffffffffffffffffffffff1673ffffffffffffffffffffffffffffffffffffffff1681526020019081526020016000206001019080519060200190610a53929190610c53565b50610b846040518060600160405280603e8152602001611656603e913933600360008673ffffffffffffffffffffffffffffffffffffffff1673ffffffffffffffffffffffffffffffffffffffff16815260200190815260200160002060000154600360008773ffffffffffffffffffffffffffffffffffffffff1673ffffffffffffffffffffffffffffffffffffffff1681526020019081526020016000206001018054610b0190611413565b80601f0160208091040260200160405190810160405280929190818152602001828054610b2d90611413565b8015610b7a5780601f10610b4f57610100808354040283529160200191610b7a565b820191906000526020600020905b815481529060010190602001808311610b5d57829003601f168201915b5050505050610bb1565b5050565b60008151905060006a636f6e736f6c652e6c6f679050602083016000808483855afa5050505050565b610c4d84848484604051602401610bcb9493929190611111565b6040516020818303038152906040527f4c55f234000000000000000000000000000000000000000000000000000000007bffffffffffffffffffffffffffffffffffffffffffffffffffffffff19166020820180517bffffffffffffffffffffffffffffffffffffffffffffffffffffffff8381831617835250505050610b88565b50505050565b828054610c5f90611413565b90600052602060002090601f016020900481019282610c815760008555610cc8565b82601f10610c9a57805160ff1916838001178555610cc8565b82800160010185558215610cc8579182015b82811115610cc7578251825591602001919060010190610cac565b5b509050610cd59190610cd9565b5090565b5b80821115610cf2576000816000905550600101610cda565b5090565b6000610d09610d0484611264565b61123f565b905082815260208101848484011115610d2157600080fd5b610d2c8482856113d1565b509392505050565b600081359050610d438161163e565b92915050565b600082601f830112610d5a57600080fd5b8135610d6a848260208601610cf6565b91505092915050565b600060208284031215610d8557600080fd5b6000610d9384828501610d34565b91505092915050565b600060208284031215610dae57600080fd5b600082013567ffffffffffffffff811115610dc857600080fd5b610dd484828501610d49565b91505092915050565b6000610de98383610e09565b60208301905092915050565b6000610e018383610ff8565b905092915050565b610e1281611395565b82525050565b610e2181611395565b82525050565b6000610e32826112b5565b610e3c81856112f0565b9350610e4783611295565b8060005b83811015610e78578151610e5f8882610ddd565b9750610e6a836112d6565b925050600181019050610e4b565b5085935050505092915050565b6000610e90826112c0565b610e9a8185611301565b935083602082028501610eac856112a5565b8060005b85811015610ee85784840389528151610ec98582610df5565b9450610ed4836112e3565b925060208a01995050600181019050610eb0565b50829750879550505050505092915050565b6000610f05826112cb565b610f0f818561131d565b9350610f1f8185602086016113e0565b610f2881611563565b840191505092915050565b6000610f3e826112cb565b610f48818561132e565b9350610f588185602086016113e0565b610f6181611563565b840191505092915050565b6000610f7960278361132e565b9150610f8482611574565b604082019050919050565b6000610f9c60088361132e565b9150610fa7826115c3565b602082019050919050565b6000610fbf60358361132e565b9150610fca826115ec565b604082019050919050565b6000610fe2600083611312565b9150610fed8261163b565b600082019050919050565b60006060830160008301516110106000860182610e09565b50602083015184820360208601526110288282610efa565b915050604083015161103d6040860182611048565b508091505092915050565b611051816113c7565b82525050565b611060816113c7565b82525050565b600061107182610fd5565b9150819050919050565b600060208201905081810360008301526110958184610e27565b905092915050565b600060208201905081810360008301526110b78184610e85565b905092915050565b600060208201905081810360008301526110d98184610f33565b905092915050565b600060408201905081810360008301526110fb8185610f33565b905061110a6020830184610e18565b9392505050565b6000608082019050818103600083015261112b8187610f33565b905061113a6020830186610e18565b6111476040830185611057565b81810360608301526111598184610f33565b905095945050505050565b6000604082019050818103600083015261117e8185610f33565b905061118d6020830184611057565b9392505050565b600060208201905081810360008301526111ad81610f6c565b9050919050565b600060208201905081810360008301526111cd81610f8f565b9050919050565b600060208201905081810360008301526111ed81610fb2565b9050919050565b60006020820190506112096000830184611057565b92915050565b60006040820190506112246000830185611057565b81810360208301526112368184610f33565b90509392505050565b600061124961125a565b90506112558282611445565b919050565b6000604051905090565b600067ffffffffffffffff82111561127f5761127e611534565b5b61128882611563565b9050602081019050919050565b6000819050602082019050919050565b6000819050602082019050919050565b600081519050919050565b600081519050919050565b600081519050919050565b6000602082019050919050565b6000602082019050919050565b600082825260208201905092915050565b600082825260208201905092915050565b600081905092915050565b600082825260208201905092915050565b600082825260208201905092915050565b600061134a826113c7565b9150611355836113c7565b9250827fffffffffffffffffffffffffffffffffffffffffffffffffffffffffffffffff0382111561138a576113896114a7565b5b828201905092915050565b60006113a0826113a7565b9050919050565b600073ffffffffffffffffffffffffffffffffffffffff82169050919050565b6000819050919050565b82818337600083830152505050565b60005b838110156113fe5780820151818401526020810190506113e3565b8381111561140d576000848401525b50505050565b6000600282049050600182168061142b57607f821691505b6020821081141561143f5761143e611505565b5b50919050565b61144e82611563565b810181811067ffffffffffffffff8211171561146d5761146c611534565b5b80604052505050565b6000611481826113c7565b915061148c836113c7565b92508261149c5761149b6114d6565b5b828206905092915050565b7f4e487b7100000000000000000000000000000000000000000000000000000000600052601160045260246000fd5b7f4e487b7100000000000000000000000000000000000000000000000000000000600052601260045260246000fd5b7f4e487b7100000000000000000000000000000000000000000000000000000000600052602260045260246000fd5b7f4e487b7100000000000000000000000000000000000000000000000000000000600052604160045260246000fd5b6000601f19601f8301169050919050565b7f4661696c656420746f207769746864726177206d6f6e65792066726f6d20636f60008201527f6e74726163742e00000000000000000000000000000000000000000000000000602082015250565b7f5761697420333073000000000000000000000000000000000000000000000000600082015250565b7f547279696e6720746f207769746864726177206d6f7265206d6f6e657920746860008201527f616e207468657920636f6e7472616374206861732e0000000000000000000000602082015250565b50565b61164781611395565b811461165257600080fd5b5056fe547261636b696e6720666f722073656e6465723a202573200a092057617665733a202564200a094c61746573742057617665206d6573736167653a202573a26469706673582212209094c250357bc82b6d42c3a42a67f050e9055470567bfd9a4c0dfc78cdb312c064736f6c63430008040033",
  "linkReferences": {},
  "deployedLinkReferences": {}
}